{
  "transactions": [
    {
      "hash": "0x3005e6cc31a891e6aaa8e0ae17c936f815e74697f0e1d78da5eba75935a7fb15",
      "transactionType": "CALL",
      "contractName": null,
      "contractAddress": "0x62a3e29afc75a91f40599f4f7314ff46eba9bf93",
      "function": "freeMint(address,uint256)",
      "arguments": [
        "0x6B9ad963c764a06A7ef8ff96D38D0cB86575eC00",
        "50000000000"
      ],
      "transaction": {
        "from": "0x6b9ad963c764a06a7ef8ff96d38d0cb86575ec00",
        "to": "0x62a3e29afc75a91f40599f4f7314ff46eba9bf93",
        "gas": "0xc364",
        "value": "0x0",
        "input": "0x9883566e0000000000000000000000006b9ad963c764a06a7ef8ff96d38d0cb86575ec000000000000000000000000000000000000000000000000000000000ba43b7400",
        "nonce": "0xa",
        "chainId": "0x141f"
      },
      "additionalContracts": [],
      "isFixedGasLimit": false
    },
    {
      "hash": "0x948c39a513df82b8a651ea7ada5b0f144c17b02aef7d5cfa4dea9d383f8d67d7",
      "transactionType": "CALL",
      "contractName": null,
      "contractAddress": "0x62a3e29afc75a91f40599f4f7314ff46eba9bf93",
      "function": "approve(address,uint256)",
      "arguments": [
        "0x94B03d30a4bdde64af2A713060dF1bE4dEb8BeC1",
        "10000000"
      ],
      "transaction": {
        "from": "0x6b9ad963c764a06a7ef8ff96d38d0cb86575ec00",
        "to": "0x62a3e29afc75a91f40599f4f7314ff46eba9bf93",
        "gas": "0x108d0",
        "value": "0x0",
        "input": "0x095ea7b300000000000000000000000094b03d30a4bdde64af2a713060df1be4deb8bec10000000000000000000000000000000000000000000000000000000000989680",
        "nonce": "0xb",
        "chainId": "0x141f"
      },
      "additionalContracts": [],
      "isFixedGasLimit": false
    },
    {
      "hash": null,
      "transactionType": "CALL",
      "contractName": null,
      "contractAddress": "0x60ddecc1f8fa85b531d4891ac1901ab263066a67",
      "function": "createToken(bytes32,string,string,uint256,uint256)",
      "arguments": [
        "0x840a020ab5a23b396dbff33aa3d3f0a10122e0c45506f345426ae9fd28b78b7f",
        "MIT Computer Science Degree",
        "MIT-CS",
        "100000000000000000000",
        "1000000000000000000000000"
      ],
      "transaction": {
        "from": "0x6b9ad963c764a06a7ef8ff96d38d0cb86575ec00",
        "to": "0x60ddecc1f8fa85b531d4891ac1901ab263066a67",
        "gas": "0x198f69",
        "value": "0x0",
        "input": "0x75dce80a840a020ab5a23b396dbff33aa3d3f0a10122e0c45506f345426ae9fd28b78b7f00000000000000000000000000000000000000000000000000000000000000a000000000000000000000000000000000000000000000000000000000000000e00000000000000000000000000000000000000000000000056bc75e2d6310000000000000000000000000000000000000000000000000d3c21bcecceda1000000000000000000000000000000000000000000000000000000000000000000001b4d495420436f6d707574657220536369656e636520446567726565000000000000000000000000000000000000000000000000000000000000000000000000064d49542d43530000000000000000000000000000000000000000000000000000",
        "nonce": "0xc",
        "chainId": "0x141f"
      },
      "additionalContracts": [
        {
          "transactionType": "CREATE",
          "address": "0x4df42747cfe514b1df36cdfb08b7c22605da4b61",
          "initCode": "0x608060405234801562000010575f80fd5b506040516200123e3803806200123e8339810160408190526200003391620002c0565b8086866003620000448382620003f2565b506004620000538282620003f2565b5050506001600160a01b0381166200008557604051631e4fbdf760e01b81525f60048201526024015b60405180910390fd5b620000908162000195565b5060017f9b779b17422d0df92223018b32b4d1fa46e071723d6817e2486d003becc55f00555f849003620000db57604051637dded4e360e11b8152600481018590526024016200007c565b825f036200010057604051633728b83d60e01b8152600481018490526024016200007c565b6001600160a01b0382166200012b57604051633728b83d60e01b81525f60048201526024016200007c565b6001600160a01b0381166200015657604051633728b83d60e01b81525f60048201526024016200007c565b506006959095556007919091556008555050600980546001600160a01b0319166001600160a01b0390921691909117905542600a555f600b55620004ba565b600580546001600160a01b038381166001600160a01b0319831681179093556040519116919082907f8be0079c531659141344cd1fd0a4f28419497f9722a3daafe3b4186f6b6457e0905f90a35050565b634e487b7160e01b5f52604160045260245ffd5b5f82601f8301126200020a575f80fd5b81516001600160401b0380821115620002275762000227620001e6565b604051601f8301601f19908116603f01168101908282118183101715620002525762000252620001e6565b816040528381526020925086838588010111156200026e575f80fd5b5f91505b8382101562000291578582018301518183018401529082019062000272565b5f93810190920192909252949350505050565b80516001600160a01b0381168114620002bb575f80fd5b919050565b5f805f805f805f60e0888a031215620002d7575f80fd5b875160208901519097506001600160401b0380821115620002f6575f80fd5b620003048b838c01620001fa565b975060408a01519150808211156200031a575f80fd5b50620003298a828b01620001fa565b95505060608801519350608088015192506200034860a08901620002a4565b91506200035860c08901620002a4565b905092959891949750929550565b600181811c908216806200037b57607f821691505b6020821081036200039a57634e487b7160e01b5f52602260045260245ffd5b50919050565b601f821115620003ed575f81815260208120601f850160051c81016020861015620003c85750805b601f850160051c820191505b81811015620003e957828155600101620003d4565b5050505b505050565b81516001600160401b038111156200040e576200040e620001e6565b62000426816200041f845462000366565b84620003a0565b602080601f8311600181146200045c575f8415620004445750858301515b5f19600386901b1c1916600185901b178555620003e9565b5f85815260208120601f198616915b828110156200048c578886015182559484019460019091019084016200046b565b5085821015620004aa57878501515f19600388901b60f8161c191681555b5050505050600190811b01905550565b610d7680620004c85f395ff3fe608060405234801561000f575f80fd5b5060043610610153575f3560e01c80637e05f5a8116100bf578063c0a77da911610079578063c0a77da9146102ac578063d89135cd146102b4578063dd62ed3e146102bc578063f2fde38b146102f4578063f366751714610307578063fca3b5aa14610318575f80fd5b80637e05f5a81461025d5780638da5cb5b146102655780639358928b1461027657806395d89b411461027e578063a1bdb15e14610286578063a9059cbb14610299575f80fd5b8063313ce56711610110578063313ce567146101ee57806340c10f19146101fd57806342966c68146102125780634c0f38c21461022557806370a082311461022d578063715018a614610255575f80fd5b806306fdde0314610157578063095ea7b3146101755780630ee2cb101461019857806318160ddd146101bd57806323b872dd146101d35780632a1690cb146101e6575b5f80fd5b61015f61032b565b60405161016c9190610b7f565b60405180910390f35b610188610183366004610be5565b6103bb565b604051901515815260200161016c565b6009546001600160a01b03165b6040516001600160a01b03909116815260200161016c565b6101c56103d4565b60405190815260200161016c565b6101886101e1366004610c0d565b6103e3565b6006546101c5565b6040516012815260200161016c565b61021061020b366004610be5565b610406565b005b610210610220366004610c46565b610539565b6008546101c5565b6101c561023b366004610c5d565b6001600160a01b03165f9081526020819052604090205490565b610210610609565b600a546101c5565b6005546001600160a01b03166101a5565b6101c561061c565b61015f610625565b610210610294366004610c46565b610634565b6101886102a7366004610be5565b6106fb565b6007546101c5565b600b546101c5565b6101c56102ca366004610c7d565b6001600160a01b039182165f90815260016020908152604080832093909416825291909152205490565b610210610302366004610c5d565b610708565b600c546001600160a01b03166101a5565b610210610326366004610c5d565b610742565b60606003805461033a90610cae565b80601f016020809104026020016040519081016040528092919081815260200182805461036690610cae565b80156103b15780601f10610388576101008083540402835291602001916103b1565b820191905f5260205f20905b81548152906001019060200180831161039457829003601f168201915b5050505050905090565b5f336103c881858561076c565b60019150505b92915050565b5f6103de60025490565b905090565b5f336103f085828561077e565b6103fb8585856107fa565b506001949350505050565b600c546001600160a01b0316331461044b57600c546040516350f39ee160e01b81523360048201526001600160a01b0390911660248201526044015b60405180910390fd5b610453610857565b805f0361047657604051633728b83d60e01b815260048101829052602401610442565b5f816104806103d4565b61048a9190610cfa565b90506008548111156104ce578161049f6103d4565b6008546104ac9190610d0d565b60405163adc3cee560e01b815260048101929092526024820152604401610442565b6104d88383610872565b600654604080518481524260208201526001600160a01b038616917f0fb9f464988231598c24809881aeb2d9e28f01befc087f76a2324388f4c1e84f910160405180910390a35061053560015f80516020610d2183398151915255565b5050565b610541610857565b805f0361056457604051633728b83d60e01b815260048101829052602401610442565b335f9081526020819052604090205481111561059657604051633728b83d60e01b815260048101829052602401610442565b6105a033826108a6565b80600b5f8282546105b19190610cfa565b90915550506040805182815242602082015233917fde3ca466246b0da455138dbea78dacd91d3c40dc98d5846ff0193bf67c24b0e7910160405180910390a261060660015f80516020610d2183398151915255565b50565b6106116108da565b61061a5f610907565b565b5f6103de6103d4565b60606004805461033a90610cae565b6009546001600160a01b0316331480159061065a57506005546001600160a01b03163314155b1561068d5760095460405163f73f2b7f60e01b81523360048201526001600160a01b039091166024820152604401610442565b805f036106b057604051637dded4e360e11b815260048101829052602401610442565b60078054908290556040805182815260208101849052428183015290517fbd61a74a39f0199307d747ae1bf2c798bb0af73e225922a452313e7e1b29ae869181900360600190a15050565b5f336103c88185856107fa565b6107106108da565b6001600160a01b03811661073957604051631e4fbdf760e01b81525f6004820152602401610442565b61060681610907565b61074a6108da565b600c80546001600160a01b0319166001600160a01b0392909216919091179055565b6107798383836001610958565b505050565b6001600160a01b038381165f908152600160209081526040808320938616835292905220545f198110156107f457818110156107e657604051637dc7a0d960e11b81526001600160a01b03841660048201526024810182905260448101839052606401610442565b6107f484848484035f610958565b50505050565b6001600160a01b03831661082357604051634b637e8f60e11b81525f6004820152602401610442565b6001600160a01b03821661084c5760405163ec442f0560e01b81525f6004820152602401610442565b610779838383610a2a565b61085f610b50565b60025f80516020610d2183398151915255565b6001600160a01b03821661089b5760405163ec442f0560e01b81525f6004820152602401610442565b6105355f8383610a2a565b6001600160a01b0382166108cf57604051634b637e8f60e11b81525f6004820152602401610442565b610535825f83610a2a565b6005546001600160a01b0316331461061a5760405163118cdaa760e01b8152336004820152602401610442565b600580546001600160a01b038381166001600160a01b0319831681179093556040519116919082907f8be0079c531659141344cd1fd0a4f28419497f9722a3daafe3b4186f6b6457e0905f90a35050565b6001600160a01b0384166109815760405163e602df0560e01b81525f6004820152602401610442565b6001600160a01b0383166109aa57604051634a1406b160e11b81525f6004820152602401610442565b6001600160a01b038085165f90815260016020908152604080832093871683529290522082905580156107f457826001600160a01b0316846001600160a01b03167f8c5be1e5ebec7d5bd14f71427d1e84f3dd0314c0f7b2291e5b200ac8c7c3b92584604051610a1c91815260200190565b60405180910390a350505050565b6001600160a01b038316610a54578060025f828254610a499190610cfa565b90915550610ac49050565b6001600160a01b0383165f9081526020819052604090205481811015610aa65760405163391434e360e21b81526001600160a01b03851660048201526024810182905260448101839052606401610442565b6001600160a01b0384165f9081526020819052604090209082900390555b6001600160a01b038216610ae057600280548290039055610afe565b6001600160a01b0382165f9081526020819052604090208054820190555b816001600160a01b0316836001600160a01b03167fddf252ad1be2c89b69c2b068fc378daa952ba7f163c4a11628f55a4df523b3ef83604051610b4391815260200190565b60405180910390a3505050565b5f80516020610d218339815191525460020361061a57604051633ee5aeb560e01b815260040160405180910390fd5b5f6020808352835180828501525f5b81811015610baa57858101830151858201604001528201610b8e565b505f604082860101526040601f19601f8301168501019250505092915050565b80356001600160a01b0381168114610be0575f80fd5b919050565b5f8060408385031215610bf6575f80fd5b610bff83610bca565b946020939093013593505050565b5f805f60608486031215610c1f575f80fd5b610c2884610bca565b9250610c3660208501610bca565b9150604084013590509250925092565b5f60208284031215610c56575f80fd5b5035919050565b5f60208284031215610c6d575f80fd5b610c7682610bca565b9392505050565b5f8060408385031215610c8e575f80fd5b610c9783610bca565b9150610ca560208401610bca565b90509250929050565b600181811c90821680610cc257607f821691505b602082108103610ce057634e487b7160e01b5f52602260045260245ffd5b50919050565b634e487b7160e01b5f52601160045260245ffd5b808201808211156103ce576103ce610ce6565b818103818111156103ce576103ce610ce656fe9b779b17422d0df92223018b32b4d1fa46e071723d6817e2486d003becc55f00a2646970667358221220e79c44f5ef1674ba9e6ef35fc05df94fbfcb59b0f765941eb4fd7e46056e690864736f6c63430008140033840a020ab5a23b396dbff33aa3d3f0a10122e0c45506f345426ae9fd28b78b7f00000000000000000000000000000000000000000000000000000000000000e000000000000000000000000000000000000000000000000000000000000001200000000000000000000000000000000000000000000000056bc75e2d6310000000000000000000000000000000000000000000000000d3c21bcecceda10000000000000000000000000000006b9ad963c764a06a7ef8ff96d38d0cb86575ec0000000000000000000000000060ddecc1f8fa85b531d4891ac1901ab263066a67000000000000000000000000000000000000000000000000000000000000001b4d495420436f6d707574657220536369656e636520446567726565000000000000000000000000000000000000000000000000000000000000000000000000064d49542d43530000000000000000000000000000000000000000000000000000"
        }
      ],
      "isFixedGasLimit": false
    },
    {
      "hash": null,
      "transactionType": "CALL",
      "contractName": null,
      "contractAddress": "0x60ddecc1f8fa85b531d4891ac1901ab263066a67",
      "function": "createToken(bytes32,string,string,uint256,uint256)",
      "arguments": [
        "0x52ca73e9cd82df8ff3a8d9ef7e4314e1551ae9c6a86b8c97ae88ef1226f39250",
        "TechCorp Senior Developer Certification",
        "TECH-DEV",
        "75000000000000000000",
        "750000000000000000000000"
      ],
      "transaction": {
        "from": "0x6b9ad963c764a06a7ef8ff96d38d0cb86575ec00",
        "to": "0x60ddecc1f8fa85b531d4891ac1901ab263066a67",
        "gas": "0x1b4f2d",
        "value": "0x0",
        "input": "0x75dce80a52ca73e9cd82df8ff3a8d9ef7e4314e1551ae9c6a86b8c97ae88ef1226f3925000000000000000000000000000000000000000000000000000000000000000a0000000000000000000000000000000000000000000000000000000000000010000000000000000000000000000000000000000000000000410d586a20a4c0000000000000000000000000000000000000000000000009ed194db19b238c00000000000000000000000000000000000000000000000000000000000000000002754656368436f72702053656e696f7220446576656c6f7065722043657274696669636174696f6e000000000000000000000000000000000000000000000000000000000000000000000000000000000000000000000000000000000000000008544543482d444556000000000000000000000000000000000000000000000000",
        "nonce": "0xd",
        "chainId": "0x141f"
      },
      "additionalContracts": [
        {
          "transactionType": "CREATE",
          "address": "0x0b49c417818a3afc5dbf98748fc63f06bda88c19",
          "initCode": "0x608060405234801562000010575f80fd5b506040516200123e3803806200123e8339810160408190526200003391620002c0565b8086866003620000448382620003f2565b506004620000538282620003f2565b5050506001600160a01b0381166200008557604051631e4fbdf760e01b81525f60048201526024015b60405180910390fd5b620000908162000195565b5060017f9b779b17422d0df92223018b32b4d1fa46e071723d6817e2486d003becc55f00555f849003620000db57604051637dded4e360e11b8152600481018590526024016200007c565b825f036200010057604051633728b83d60e01b8152600481018490526024016200007c565b6001600160a01b0382166200012b57604051633728b83d60e01b81525f60048201526024016200007c565b6001600160a01b0381166200015657604051633728b83d60e01b81525f60048201526024016200007c565b506006959095556007919091556008555050600980546001600160a01b0319166001600160a01b0390921691909117905542600a555f600b55620004ba565b600580546001600160a01b038381166001600160a01b0319831681179093556040519116919082907f8be0079c531659141344cd1fd0a4f28419497f9722a3daafe3b4186f6b6457e0905f90a35050565b634e487b7160e01b5f52604160045260245ffd5b5f82601f8301126200020a575f80fd5b81516001600160401b0380821115620002275762000227620001e6565b604051601f8301601f19908116603f01168101908282118183101715620002525762000252620001e6565b816040528381526020925086838588010111156200026e575f80fd5b5f91505b8382101562000291578582018301518183018401529082019062000272565b5f93810190920192909252949350505050565b80516001600160a01b0381168114620002bb575f80fd5b919050565b5f805f805f805f60e0888a031215620002d7575f80fd5b875160208901519097506001600160401b0380821115620002f6575f80fd5b620003048b838c01620001fa565b975060408a01519150808211156200031a575f80fd5b50620003298a828b01620001fa565b95505060608801519350608088015192506200034860a08901620002a4565b91506200035860c08901620002a4565b905092959891949750929550565b600181811c908216806200037b57607f821691505b6020821081036200039a57634e487b7160e01b5f52602260045260245ffd5b50919050565b601f821115620003ed575f81815260208120601f850160051c81016020861015620003c85750805b601f850160051c820191505b81811015620003e957828155600101620003d4565b5050505b505050565b81516001600160401b038111156200040e576200040e620001e6565b62000426816200041f845462000366565b84620003a0565b602080601f8311600181146200045c575f8415620004445750858301515b5f19600386901b1c1916600185901b178555620003e9565b5f85815260208120601f198616915b828110156200048c578886015182559484019460019091019084016200046b565b5085821015620004aa57878501515f19600388901b60f8161c191681555b5050505050600190811b01905550565b610d7680620004c85f395ff3fe608060405234801561000f575f80fd5b5060043610610153575f3560e01c80637e05f5a8116100bf578063c0a77da911610079578063c0a77da9146102ac578063d89135cd146102b4578063dd62ed3e146102bc578063f2fde38b146102f4578063f366751714610307578063fca3b5aa14610318575f80fd5b80637e05f5a81461025d5780638da5cb5b146102655780639358928b1461027657806395d89b411461027e578063a1bdb15e14610286578063a9059cbb14610299575f80fd5b8063313ce56711610110578063313ce567146101ee57806340c10f19146101fd57806342966c68146102125780634c0f38c21461022557806370a082311461022d578063715018a614610255575f80fd5b806306fdde0314610157578063095ea7b3146101755780630ee2cb101461019857806318160ddd146101bd57806323b872dd146101d35780632a1690cb146101e6575b5f80fd5b61015f61032b565b60405161016c9190610b7f565b60405180910390f35b610188610183366004610be5565b6103bb565b604051901515815260200161016c565b6009546001600160a01b03165b6040516001600160a01b03909116815260200161016c565b6101c56103d4565b60405190815260200161016c565b6101886101e1366004610c0d565b6103e3565b6006546101c5565b6040516012815260200161016c565b61021061020b366004610be5565b610406565b005b610210610220366004610c46565b610539565b6008546101c5565b6101c561023b366004610c5d565b6001600160a01b03165f9081526020819052604090205490565b610210610609565b600a546101c5565b6005546001600160a01b03166101a5565b6101c561061c565b61015f610625565b610210610294366004610c46565b610634565b6101886102a7366004610be5565b6106fb565b6007546101c5565b600b546101c5565b6101c56102ca366004610c7d565b6001600160a01b039182165f90815260016020908152604080832093909416825291909152205490565b610210610302366004610c5d565b610708565b600c546001600160a01b03166101a5565b610210610326366004610c5d565b610742565b60606003805461033a90610cae565b80601f016020809104026020016040519081016040528092919081815260200182805461036690610cae565b80156103b15780601f10610388576101008083540402835291602001916103b1565b820191905f5260205f20905b81548152906001019060200180831161039457829003601f168201915b5050505050905090565b5f336103c881858561076c565b60019150505b92915050565b5f6103de60025490565b905090565b5f336103f085828561077e565b6103fb8585856107fa565b506001949350505050565b600c546001600160a01b0316331461044b57600c546040516350f39ee160e01b81523360048201526001600160a01b0390911660248201526044015b60405180910390fd5b610453610857565b805f0361047657604051633728b83d60e01b815260048101829052602401610442565b5f816104806103d4565b61048a9190610cfa565b90506008548111156104ce578161049f6103d4565b6008546104ac9190610d0d565b60405163adc3cee560e01b815260048101929092526024820152604401610442565b6104d88383610872565b600654604080518481524260208201526001600160a01b038616917f0fb9f464988231598c24809881aeb2d9e28f01befc087f76a2324388f4c1e84f910160405180910390a35061053560015f80516020610d2183398151915255565b5050565b610541610857565b805f0361056457604051633728b83d60e01b815260048101829052602401610442565b335f9081526020819052604090205481111561059657604051633728b83d60e01b815260048101829052602401610442565b6105a033826108a6565b80600b5f8282546105b19190610cfa565b90915550506040805182815242602082015233917fde3ca466246b0da455138dbea78dacd91d3c40dc98d5846ff0193bf67c24b0e7910160405180910390a261060660015f80516020610d2183398151915255565b50565b6106116108da565b61061a5f610907565b565b5f6103de6103d4565b60606004805461033a90610cae565b6009546001600160a01b0316331480159061065a57506005546001600160a01b03163314155b1561068d5760095460405163f73f2b7f60e01b81523360048201526001600160a01b039091166024820152604401610442565b805f036106b057604051637dded4e360e11b815260048101829052602401610442565b60078054908290556040805182815260208101849052428183015290517fbd61a74a39f0199307d747ae1bf2c798bb0af73e225922a452313e7e1b29ae869181900360600190a15050565b5f336103c88185856107fa565b6107106108da565b6001600160a01b03811661073957604051631e4fbdf760e01b81525f6004820152602401610442565b61060681610907565b61074a6108da565b600c80546001600160a01b0319166001600160a01b0392909216919091179055565b6107798383836001610958565b505050565b6001600160a01b038381165f908152600160209081526040808320938616835292905220545f198110156107f457818110156107e657604051637dc7a0d960e11b81526001600160a01b03841660048201526024810182905260448101839052606401610442565b6107f484848484035f610958565b50505050565b6001600160a01b03831661082357604051634b637e8f60e11b81525f6004820152602401610442565b6001600160a01b03821661084c5760405163ec442f0560e01b81525f6004820152602401610442565b610779838383610a2a565b61085f610b50565b60025f80516020610d2183398151915255565b6001600160a01b03821661089b5760405163ec442f0560e01b81525f6004820152602401610442565b6105355f8383610a2a565b6001600160a01b0382166108cf57604051634b637e8f60e11b81525f6004820152602401610442565b610535825f83610a2a565b6005546001600160a01b0316331461061a5760405163118cdaa760e01b8152336004820152602401610442565b600580546001600160a01b038381166001600160a01b0319831681179093556040519116919082907f8be0079c531659141344cd1fd0a4f28419497f9722a3daafe3b4186f6b6457e0905f90a35050565b6001600160a01b0384166109815760405163e602df0560e01b81525f6004820152602401610442565b6001600160a01b0383166109aa57604051634a1406b160e11b81525f6004820152602401610442565b6001600160a01b038085165f90815260016020908152604080832093871683529290522082905580156107f457826001600160a01b0316846001600160a01b03167f8c5be1e5ebec7d5bd14f71427d1e84f3dd0314c0f7b2291e5b200ac8c7c3b92584604051610a1c91815260200190565b60405180910390a350505050565b6001600160a01b038316610a54578060025f828254610a499190610cfa565b90915550610ac49050565b6001600160a01b0383165f9081526020819052604090205481811015610aa65760405163391434e360e21b81526001600160a01b03851660048201526024810182905260448101839052606401610442565b6001600160a01b0384165f9081526020819052604090209082900390555b6001600160a01b038216610ae057600280548290039055610afe565b6001600160a01b0382165f9081526020819052604090208054820190555b816001600160a01b0316836001600160a01b03167fddf252ad1be2c89b69c2b068fc378daa952ba7f163c4a11628f55a4df523b3ef83604051610b4391815260200190565b60405180910390a3505050565b5f80516020610d218339815191525460020361061a57604051633ee5aeb560e01b815260040160405180910390fd5b5f6020808352835180828501525f5b81811015610baa57858101830151858201604001528201610b8e565b505f604082860101526040601f19601f8301168501019250505092915050565b80356001600160a01b0381168114610be0575f80fd5b919050565b5f8060408385031215610bf6575f80fd5b610bff83610bca565b946020939093013593505050565b5f805f60608486031215610c1f575f80fd5b610c2884610bca565b9250610c3660208501610bca565b9150604084013590509250925092565b5f60208284031215610c56575f80fd5b5035919050565b5f60208284031215610c6d575f80fd5b610c7682610bca565b9392505050565b5f8060408385031215610c8e575f80fd5b610c9783610bca565b9150610ca560208401610bca565b90509250929050565b600181811c90821680610cc257607f821691505b602082108103610ce057634e487b7160e01b5f52602260045260245ffd5b50919050565b634e487b7160e01b5f52601160045260245ffd5b808201808211156103ce576103ce610ce6565b818103818111156103ce576103ce610ce656fe9b779b17422d0df92223018b32b4d1fa46e071723d6817e2486d003becc55f00a2646970667358221220e79c44f5ef1674ba9e6ef35fc05df94fbfcb59b0f765941eb4fd7e46056e690864736f6c6343000814003352ca73e9cd82df8ff3a8d9ef7e4314e1551ae9c6a86b8c97ae88ef1226f3925000000000000000000000000000000000000000000000000000000000000000e0000000000000000000000000000000000000000000000000000000000000014000000000000000000000000000000000000000000000000410d586a20a4c0000000000000000000000000000000000000000000000009ed194db19b238c000000000000000000000000000006b9ad963c764a06a7ef8ff96d38d0cb86575ec0000000000000000000000000060ddecc1f8fa85b531d4891ac1901ab263066a67000000000000000000000000000000000000000000000000000000000000002754656368436f72702053656e696f7220446576656c6f7065722043657274696669636174696f6e000000000000000000000000000000000000000000000000000000000000000000000000000000000000000000000000000000000000000008544543482d444556000000000000000000000000000000000000000000000000"
        }
      ],
      "isFixedGasLimit": false
    },
    {
      "hash": null,
      "transactionType": "CALL",
      "contractName": null,
      "contractAddress": "0x60ddecc1f8fa85b531d4891ac1901ab263066a67",
      "function": "createToken(bytes32,string,string,uint256,uint256)",
      "arguments": [
        "0x36f54272069d54283c9b19b2bda5fcf3ac67472872a89d6fbd8ac62b04e52b6d",
        "CryptoAcademy Blockchain Expert Badge",
        "CRYPTO-BE",
        "50000000000000000000",
        "500000000000000000000000"
      ],
      "transaction": {
        "from": "0x6b9ad963c764a06a7ef8ff96d38d0cb86575ec00",
        "to": "0x60ddecc1f8fa85b531d4891ac1901ab263066a67",
        "gas": "0x19cab5",
        "value": "0x0",
        "input": "0x75dce80a36f54272069d54283c9b19b2bda5fcf3ac67472872a89d6fbd8ac62b04e52b6d00000000000000000000000000000000000000000000000000000000000000a00000000000000000000000000000000000000000000000000000000000000100000000000000000000000000000000000000000000000002b5e3af16b18800000000000000000000000000000000000000000000000069e10de76676d0800000000000000000000000000000000000000000000000000000000000000000002543727970746f41636164656d7920426c6f636b636861696e20457870657274204261646765000000000000000000000000000000000000000000000000000000000000000000000000000000000000000000000000000000000000000000000943525950544f2d42450000000000000000000000000000000000000000000000",
        "nonce": "0xe",
        "chainId": "0x141f"
      },
      "additionalContracts": [
        {
          "transactionType": "CREATE",
          "address": "0xfdecdf2004f339c0d2e12a924b91eedcfa911062",
          "initCode": "0x608060405234801562000010575f80fd5b506040516200123e3803806200123e8339810160408190526200003391620002c0565b8086866003620000448382620003f2565b506004620000538282620003f2565b5050506001600160a01b0381166200008557604051631e4fbdf760e01b81525f60048201526024015b60405180910390fd5b620000908162000195565b5060017f9b779b17422d0df92223018b32b4d1fa46e071723d6817e2486d003becc55f00555f849003620000db57604051637dded4e360e11b8152600481018590526024016200007c565b825f036200010057604051633728b83d60e01b8152600481018490526024016200007c565b6001600160a01b0382166200012b57604051633728b83d60e01b81525f60048201526024016200007c565b6001600160a01b0381166200015657604051633728b83d60e01b81525f60048201526024016200007c565b506006959095556007919091556008555050600980546001600160a01b0319166001600160a01b0390921691909117905542600a555f600b55620004ba565b600580546001600160a01b038381166001600160a01b0319831681179093556040519116919082907f8be0079c531659141344cd1fd0a4f28419497f9722a3daafe3b4186f6b6457e0905f90a35050565b634e487b7160e01b5f52604160045260245ffd5b5f82601f8301126200020a575f80fd5b81516001600160401b0380821115620002275762000227620001e6565b604051601f8301601f19908116603f01168101908282118183101715620002525762000252620001e6565b816040528381526020925086838588010111156200026e575f80fd5b5f91505b8382101562000291578582018301518183018401529082019062000272565b5f93810190920192909252949350505050565b80516001600160a01b0381168114620002bb575f80fd5b919050565b5f805f805f805f60e0888a031215620002d7575f80fd5b875160208901519097506001600160401b0380821115620002f6575f80fd5b620003048b838c01620001fa565b975060408a01519150808211156200031a575f80fd5b50620003298a828b01620001fa565b95505060608801519350608088015192506200034860a08901620002a4565b91506200035860c08901620002a4565b905092959891949750929550565b600181811c908216806200037b57607f821691505b6020821081036200039a57634e487b7160e01b5f52602260045260245ffd5b50919050565b601f821115620003ed575f81815260208120601f850160051c81016020861015620003c85750805b601f850160051c820191505b81811015620003e957828155600101620003d4565b5050505b505050565b81516001600160401b038111156200040e576200040e620001e6565b62000426816200041f845462000366565b84620003a0565b602080601f8311600181146200045c575f8415620004445750858301515b5f19600386901b1c1916600185901b178555620003e9565b5f85815260208120601f198616915b828110156200048c578886015182559484019460019091019084016200046b565b5085821015620004aa57878501515f19600388901b60f8161c191681555b5050505050600190811b01905550565b610d7680620004c85f395ff3fe608060405234801561000f575f80fd5b5060043610610153575f3560e01c80637e05f5a8116100bf578063c0a77da911610079578063c0a77da9146102ac578063d89135cd146102b4578063dd62ed3e146102bc578063f2fde38b146102f4578063f366751714610307578063fca3b5aa14610318575f80fd5b80637e05f5a81461025d5780638da5cb5b146102655780639358928b1461027657806395d89b411461027e578063a1bdb15e14610286578063a9059cbb14610299575f80fd5b8063313ce56711610110578063313ce567146101ee57806340c10f19146101fd57806342966c68146102125780634c0f38c21461022557806370a082311461022d578063715018a614610255575f80fd5b806306fdde0314610157578063095ea7b3146101755780630ee2cb101461019857806318160ddd146101bd57806323b872dd146101d35780632a1690cb146101e6575b5f80fd5b61015f61032b565b60405161016c9190610b7f565b60405180910390f35b610188610183366004610be5565b6103bb565b604051901515815260200161016c565b6009546001600160a01b03165b6040516001600160a01b03909116815260200161016c565b6101c56103d4565b60405190815260200161016c565b6101886101e1366004610c0d565b6103e3565b6006546101c5565b6040516012815260200161016c565b61021061020b366004610be5565b610406565b005b610210610220366004610c46565b610539565b6008546101c5565b6101c561023b366004610c5d565b6001600160a01b03165f9081526020819052604090205490565b610210610609565b600a546101c5565b6005546001600160a01b03166101a5565b6101c561061c565b61015f610625565b610210610294366004610c46565b610634565b6101886102a7366004610be5565b6106fb565b6007546101c5565b600b546101c5565b6101c56102ca366004610c7d565b6001600160a01b039182165f90815260016020908152604080832093909416825291909152205490565b610210610302366004610c5d565b610708565b600c546001600160a01b03166101a5565b610210610326366004610c5d565b610742565b60606003805461033a90610cae565b80601f016020809104026020016040519081016040528092919081815260200182805461036690610cae565b80156103b15780601f10610388576101008083540402835291602001916103b1565b820191905f5260205f20905b81548152906001019060200180831161039457829003601f168201915b5050505050905090565b5f336103c881858561076c565b60019150505b92915050565b5f6103de60025490565b905090565b5f336103f085828561077e565b6103fb8585856107fa565b506001949350505050565b600c546001600160a01b0316331461044b57600c546040516350f39ee160e01b81523360048201526001600160a01b0390911660248201526044015b60405180910390fd5b610453610857565b805f0361047657604051633728b83d60e01b815260048101829052602401610442565b5f816104806103d4565b61048a9190610cfa565b90506008548111156104ce578161049f6103d4565b6008546104ac9190610d0d565b60405163adc3cee560e01b815260048101929092526024820152604401610442565b6104d88383610872565b600654604080518481524260208201526001600160a01b038616917f0fb9f464988231598c24809881aeb2d9e28f01befc087f76a2324388f4c1e84f910160405180910390a35061053560015f80516020610d2183398151915255565b5050565b610541610857565b805f0361056457604051633728b83d60e01b815260048101829052602401610442565b335f9081526020819052604090205481111561059657604051633728b83d60e01b815260048101829052602401610442565b6105a033826108a6565b80600b5f8282546105b19190610cfa565b90915550506040805182815242602082015233917fde3ca466246b0da455138dbea78dacd91d3c40dc98d5846ff0193bf67c24b0e7910160405180910390a261060660015f80516020610d2183398151915255565b50565b6106116108da565b61061a5f610907565b565b5f6103de6103d4565b60606004805461033a90610cae565b6009546001600160a01b0316331480159061065a57506005546001600160a01b03163314155b1561068d5760095460405163f73f2b7f60e01b81523360048201526001600160a01b039091166024820152604401610442565b805f036106b057604051637dded4e360e11b815260048101829052602401610442565b60078054908290556040805182815260208101849052428183015290517fbd61a74a39f0199307d747ae1bf2c798bb0af73e225922a452313e7e1b29ae869181900360600190a15050565b5f336103c88185856107fa565b6107106108da565b6001600160a01b03811661073957604051631e4fbdf760e01b81525f6004820152602401610442565b61060681610907565b61074a6108da565b600c80546001600160a01b0319166001600160a01b0392909216919091179055565b6107798383836001610958565b505050565b6001600160a01b038381165f908152600160209081526040808320938616835292905220545f198110156107f457818110156107e657604051637dc7a0d960e11b81526001600160a01b03841660048201526024810182905260448101839052606401610442565b6107f484848484035f610958565b50505050565b6001600160a01b03831661082357604051634b637e8f60e11b81525f6004820152602401610442565b6001600160a01b03821661084c5760405163ec442f0560e01b81525f6004820152602401610442565b610779838383610a2a565b61085f610b50565b60025f80516020610d2183398151915255565b6001600160a01b03821661089b5760405163ec442f0560e01b81525f6004820152602401610442565b6105355f8383610a2a565b6001600160a01b0382166108cf57604051634b637e8f60e11b81525f6004820152602401610442565b610535825f83610a2a565b6005546001600160a01b0316331461061a5760405163118cdaa760e01b8152336004820152602401610442565b600580546001600160a01b038381166001600160a01b0319831681179093556040519116919082907f8be0079c531659141344cd1fd0a4f28419497f9722a3daafe3b4186f6b6457e0905f90a35050565b6001600160a01b0384166109815760405163e602df0560e01b81525f6004820152602401610442565b6001600160a01b0383166109aa57604051634a1406b160e11b81525f6004820152602401610442565b6001600160a01b038085165f90815260016020908152604080832093871683529290522082905580156107f457826001600160a01b0316846001600160a01b03167f8c5be1e5ebec7d5bd14f71427d1e84f3dd0314c0f7b2291e5b200ac8c7c3b92584604051610a1c91815260200190565b60405180910390a350505050565b6001600160a01b038316610a54578060025f828254610a499190610cfa565b90915550610ac49050565b6001600160a01b0383165f9081526020819052604090205481811015610aa65760405163391434e360e21b81526001600160a01b03851660048201526024810182905260448101839052606401610442565b6001600160a01b0384165f9081526020819052604090209082900390555b6001600160a01b038216610ae057600280548290039055610afe565b6001600160a01b0382165f9081526020819052604090208054820190555b816001600160a01b0316836001600160a01b03167fddf252ad1be2c89b69c2b068fc378daa952ba7f163c4a11628f55a4df523b3ef83604051610b4391815260200190565b60405180910390a3505050565b5f80516020610d218339815191525460020361061a57604051633ee5aeb560e01b815260040160405180910390fd5b5f6020808352835180828501525f5b81811015610baa57858101830151858201604001528201610b8e565b505f604082860101526040601f19601f8301168501019250505092915050565b80356001600160a01b0381168114610be0575f80fd5b919050565b5f8060408385031215610bf6575f80fd5b610bff83610bca565b946020939093013593505050565b5f805f60608486031215610c1f575f80fd5b610c2884610bca565b9250610c3660208501610bca565b9150604084013590509250925092565b5f60208284031215610c56575f80fd5b5035919050565b5f60208284031215610c6d575f80fd5b610c7682610bca565b9392505050565b5f8060408385031215610c8e575f80fd5b610c9783610bca565b9150610ca560208401610bca565b90509250929050565b600181811c90821680610cc257607f821691505b602082108103610ce057634e487b7160e01b5f52602260045260245ffd5b50919050565b634e487b7160e01b5f52601160045260245ffd5b808201808211156103ce576103ce610ce6565b818103818111156103ce576103ce610ce656fe9b779b17422d0df92223018b32b4d1fa46e071723d6817e2486d003becc55f00a2646970667358221220e79c44f5ef1674ba9e6ef35fc05df94fbfcb59b0f765941eb4fd7e46056e690864736f6c6343000814003336f54272069d54283c9b19b2bda5fcf3ac67472872a89d6fbd8ac62b04e52b6d00000000000000000000000000000000000000000000000000000000000000e00000000000000000000000000000000000000000000000000000000000000140000000000000000000000000000000000000000000000002b5e3af16b18800000000000000000000000000000000000000000000000069e10de76676d08000000000000000000000000000006b9ad963c764a06a7ef8ff96d38d0cb86575ec0000000000000000000000000060ddecc1f8fa85b531d4891ac1901ab263066a67000000000000000000000000000000000000000000000000000000000000002543727970746f41636164656d7920426c6f636b636861696e20457870657274204261646765000000000000000000000000000000000000000000000000000000000000000000000000000000000000000000000000000000000000000000000943525950544f2d42450000000000000000000000000000000000000000000000"
        }
      ],
      "isFixedGasLimit": false
    },
    {
      "hash": null,
      "transactionType": "CALL",
      "contractName": null,
      "contractAddress": "0x60ddecc1f8fa85b531d4891ac1901ab263066a67",
      "function": "setTokenMinter(address,address)",
      "arguments": [
        "0x4df42747cfE514b1DF36CdFb08b7C22605dA4b61",
        "0x6B9ad963c764a06A7ef8ff96D38D0cB86575eC00"
      ],
      "transaction": {
        "from": "0x6b9ad963c764a06a7ef8ff96d38d0cb86575ec00",
        "to": "0x60ddecc1f8fa85b531d4891ac1901ab263066a67",
        "gas": "0xd440",
        "value": "0x0",
        "input": "0xd9ff99580000000000000000000000004df42747cfe514b1df36cdfb08b7c22605da4b610000000000000000000000006b9ad963c764a06a7ef8ff96d38d0cb86575ec00",
        "nonce": "0xf",
        "chainId": "0x141f"
      },
      "additionalContracts": [],
      "isFixedGasLimit": false
    },
    {
      "hash": null,
      "transactionType": "CALL",
      "contractName": "CredentialToken",
      "contractAddress": "0x4df42747cfe514b1df36cdfb08b7c22605da4b61",
      "function": "mint(address,uint256)",
      "arguments": [
        "0x6B9ad963c764a06A7ef8ff96D38D0cB86575eC00",
        "1000000000000000000000"
      ],
      "transaction": {
        "from": "0x6b9ad963c764a06a7ef8ff96d38d0cb86575ec00",
        "to": "0x4df42747cfe514b1df36cdfb08b7c22605da4b61",
        "gas": "0x1adea",
        "value": "0x0",
        "input": "0x40c10f190000000000000000000000006b9ad963c764a06a7ef8ff96d38d0cb86575ec0000000000000000000000000000000000000000000000003635c9adc5dea00000",
        "nonce": "0x10",
        "chainId": "0x141f"
      },
      "additionalContracts": [],
      "isFixedGasLimit": false
    },
    {
      "hash": null,
      "transactionType": "CALL",
      "contractName": null,
      "contractAddress": "0x60ddecc1f8fa85b531d4891ac1901ab263066a67",
      "function": "setTokenMinter(address,address)",
      "arguments": [
        "0x4df42747cfE514b1DF36CdFb08b7C22605dA4b61",
        "0x94B03d30a4bdde64af2A713060dF1bE4dEb8BeC1"
      ],
      "transaction": {
        "from": "0x6b9ad963c764a06a7ef8ff96d38d0cb86575ec00",
        "to": "0x60ddecc1f8fa85b531d4891ac1901ab263066a67",
        "gas": "0xc885",
        "value": "0x0",
        "input": "0xd9ff99580000000000000000000000004df42747cfe514b1df36cdfb08b7c22605da4b6100000000000000000000000094b03d30a4bdde64af2a713060df1be4deb8bec1",
        "nonce": "0x11",
        "chainId": "0x141f"
      },
      "additionalContracts": [],
      "isFixedGasLimit": false
    },
    {
      "hash": null,
      "transactionType": "CALL",
      "contractName": "CredentialToken",
      "contractAddress": "0x4df42747cfe514b1df36cdfb08b7c22605da4b61",
      "function": "approve(address,uint256)",
      "arguments": [
        "0x15ad9d57A5A6Fea6b7efdA228ef117a4A7ed9ef9",
        "1000000000000000000000"
      ],
      "transaction": {
        "from": "0x6b9ad963c764a06a7ef8ff96d38d0cb86575ec00",
        "to": "0x4df42747cfe514b1df36cdfb08b7c22605da4b61",
        "gas": "0x10916",
        "value": "0x0",
        "input": "0x095ea7b300000000000000000000000015ad9d57a5a6fea6b7efda228ef117a4a7ed9ef900000000000000000000000000000000000000000000003635c9adc5dea00000",
        "nonce": "0x12",
        "chainId": "0x141f"
      },
      "additionalContracts": [],
      "isFixedGasLimit": false
    },
    {
      "hash": null,
      "transactionType": "CALL",
      "contractName": null,
      "contractAddress": "0x62a3e29afc75a91f40599f4f7314ff46eba9bf93",
      "function": "approve(address,uint256)",
      "arguments": [
        "0x15ad9d57A5A6Fea6b7efdA228ef117a4A7ed9ef9",
        "1000000000"
      ],
      "transaction": {
        "from": "0x6b9ad963c764a06a7ef8ff96d38d0cb86575ec00",
        "to": "0x62a3e29afc75a91f40599f4f7314ff46eba9bf93",
        "gas": "0x108d0",
        "value": "0x0",
        "input": "0x095ea7b300000000000000000000000015ad9d57a5a6fea6b7efda228ef117a4a7ed9ef9000000000000000000000000000000000000000000000000000000003b9aca00",
        "nonce": "0x13",
        "chainId": "0x141f"
      },
      "additionalContracts": [],
      "isFixedGasLimit": false
    },
    {
      "hash": null,
      "transactionType": "CALL",
      "contractName": null,
      "contractAddress": "0x15ad9d57a5a6fea6b7efda228ef117a4a7ed9ef9",
      "function": "createPool(bytes32,address,uint256,uint256)",
      "arguments": [
        "0x840a020ab5a23b396dbff33aa3d3f0a10122e0c45506f345426ae9fd28b78b7f",
        "0x4df42747cfE514b1DF36CdFb08b7C22605dA4b61",
        "1000000000000000000000",
        "1000000000"
      ],
      "transaction": {
        "from": "0x6b9ad963c764a06a7ef8ff96d38d0cb86575ec00",
        "to": "0x15ad9d57a5a6fea6b7efda228ef117a4a7ed9ef9",
        "gas": "0x8804e",
        "value": "0x0",
        "input": "0x5ab98a56840a020ab5a23b396dbff33aa3d3f0a10122e0c45506f345426ae9fd28b78b7f0000000000000000000000004df42747cfe514b1df36cdfb08b7c22605da4b6100000000000000000000000000000000000000000000003635c9adc5dea00000000000000000000000000000000000000000000000000000000000003b9aca00",
        "nonce": "0x14",
        "chainId": "0x141f"
      },
      "additionalContracts": [],
      "isFixedGasLimit": false
    },
    {
      "hash": null,
      "transactionType": "CALL",
      "contractName": null,
      "contractAddress": "0x60ddecc1f8fa85b531d4891ac1901ab263066a67",
      "function": "setTokenMinter(address,address)",
      "arguments": [
        "0x0B49C417818a3afc5DbF98748Fc63F06bDa88C19",
        "0x6B9ad963c764a06A7ef8ff96D38D0cB86575eC00"
      ],
      "transaction": {
        "from": "0x6b9ad963c764a06a7ef8ff96d38d0cb86575ec00",
        "to": "0x60ddecc1f8fa85b531d4891ac1901ab263066a67",
        "gas": "0xd440",
        "value": "0x0",
        "input": "0xd9ff99580000000000000000000000000b49c417818a3afc5dbf98748fc63f06bda88c190000000000000000000000006b9ad963c764a06a7ef8ff96d38d0cb86575ec00",
        "nonce": "0x15",
        "chainId": "0x141f"
      },
      "additionalContracts": [],
      "isFixedGasLimit": false
    },
    {
      "hash": null,
      "transactionType": "CALL",
      "contractName": "CredentialToken",
      "contractAddress": "0x0b49c417818a3afc5dbf98748fc63f06bda88c19",
      "function": "mint(address,uint256)",
      "arguments": [
        "0x6B9ad963c764a06A7ef8ff96D38D0cB86575eC00",
        "1000000000000000000000"
      ],
      "transaction": {
        "from": "0x6b9ad963c764a06a7ef8ff96d38d0cb86575ec00",
        "to": "0x0b49c417818a3afc5dbf98748fc63f06bda88c19",
        "gas": "0x1adea",
        "value": "0x0",
        "input": "0x40c10f190000000000000000000000006b9ad963c764a06a7ef8ff96d38d0cb86575ec0000000000000000000000000000000000000000000000003635c9adc5dea00000",
        "nonce": "0x16",
        "chainId": "0x141f"
      },
      "additionalContracts": [],
      "isFixedGasLimit": false
    },
    {
      "hash": null,
      "transactionType": "CALL",
      "contractName": null,
      "contractAddress": "0x60ddecc1f8fa85b531d4891ac1901ab263066a67",
      "function": "setTokenMinter(address,address)",
      "arguments": [
        "0x0B49C417818a3afc5DbF98748Fc63F06bDa88C19",
        "0x94B03d30a4bdde64af2A713060dF1bE4dEb8BeC1"
      ],
      "transaction": {
        "from": "0x6b9ad963c764a06a7ef8ff96d38d0cb86575ec00",
        "to": "0x60ddecc1f8fa85b531d4891ac1901ab263066a67",
        "gas": "0xc885",
        "value": "0x0",
        "input": "0xd9ff99580000000000000000000000000b49c417818a3afc5dbf98748fc63f06bda88c1900000000000000000000000094b03d30a4bdde64af2a713060df1be4deb8bec1",
        "nonce": "0x17",
        "chainId": "0x141f"
      },
      "additionalContracts": [],
      "isFixedGasLimit": false
    },
    {
      "hash": null,
      "transactionType": "CALL",
      "contractName": "CredentialToken",
      "contractAddress": "0x0b49c417818a3afc5dbf98748fc63f06bda88c19",
      "function": "approve(address,uint256)",
      "arguments": [
        "0x15ad9d57A5A6Fea6b7efdA228ef117a4A7ed9ef9",
        "1000000000000000000000"
      ],
      "transaction": {
        "from": "0x6b9ad963c764a06a7ef8ff96d38d0cb86575ec00",
        "to": "0x0b49c417818a3afc5dbf98748fc63f06bda88c19",
        "gas": "0x10916",
        "value": "0x0",
        "input": "0x095ea7b300000000000000000000000015ad9d57a5a6fea6b7efda228ef117a4a7ed9ef900000000000000000000000000000000000000000000003635c9adc5dea00000",
        "nonce": "0x18",
        "chainId": "0x141f"
      },
      "additionalContracts": [],
      "isFixedGasLimit": false
    },
    {
      "hash": null,
      "transactionType": "CALL",
      "contractName": null,
      "contractAddress": "0x62a3e29afc75a91f40599f4f7314ff46eba9bf93",
      "function": "approve(address,uint256)",
      "arguments": [
        "0x15ad9d57A5A6Fea6b7efdA228ef117a4A7ed9ef9",
        "1000000000"
      ],
      "transaction": {
        "from": "0x6b9ad963c764a06a7ef8ff96d38d0cb86575ec00",
        "to": "0x62a3e29afc75a91f40599f4f7314ff46eba9bf93",
        "gas": "0x108d0",
        "value": "0x0",
        "input": "0x095ea7b300000000000000000000000015ad9d57a5a6fea6b7efda228ef117a4a7ed9ef9000000000000000000000000000000000000000000000000000000003b9aca00",
        "nonce": "0x19",
        "chainId": "0x141f"
      },
      "additionalContracts": [],
      "isFixedGasLimit": false
    },
    {
      "hash": null,
      "transactionType": "CALL",
      "contractName": null,
      "contractAddress": "0x15ad9d57a5a6fea6b7efda228ef117a4a7ed9ef9",
      "function": "createPool(bytes32,address,uint256,uint256)",
      "arguments": [
        "0x52ca73e9cd82df8ff3a8d9ef7e4314e1551ae9c6a86b8c97ae88ef1226f39250",
        "0x0B49C417818a3afc5DbF98748Fc63F06bDa88C19",
        "1000000000000000000000",
        "1000000000"
      ],
      "transaction": {
        "from": "0x6b9ad963c764a06a7ef8ff96d38d0cb86575ec00",
        "to": "0x15ad9d57a5a6fea6b7efda228ef117a4a7ed9ef9",
        "gas": "0x7ab23",
        "value": "0x0",
        "input": "0x5ab98a5652ca73e9cd82df8ff3a8d9ef7e4314e1551ae9c6a86b8c97ae88ef1226f392500000000000000000000000000b49c417818a3afc5dbf98748fc63f06bda88c1900000000000000000000000000000000000000000000003635c9adc5dea00000000000000000000000000000000000000000000000000000000000003b9aca00",
        "nonce": "0x1a",
        "chainId": "0x141f"
      },
      "additionalContracts": [],
      "isFixedGasLimit": false
    },
    {
      "hash": null,
      "transactionType": "CALL",
      "contractName": null,
      "contractAddress": "0x60ddecc1f8fa85b531d4891ac1901ab263066a67",
      "function": "setTokenMinter(address,address)",
      "arguments": [
        "0xFdEcdF2004f339C0d2e12A924B91EEdcfA911062",
        "0x6B9ad963c764a06A7ef8ff96D38D0cB86575eC00"
      ],
      "transaction": {
        "from": "0x6b9ad963c764a06a7ef8ff96d38d0cb86575ec00",
        "to": "0x60ddecc1f8fa85b531d4891ac1901ab263066a67",
        "gas": "0xd440",
        "value": "0x0",
        "input": "0xd9ff9958000000000000000000000000fdecdf2004f339c0d2e12a924b91eedcfa9110620000000000000000000000006b9ad963c764a06a7ef8ff96d38d0cb86575ec00",
        "nonce": "0x1b",
        "chainId": "0x141f"
      },
      "additionalContracts": [],
      "isFixedGasLimit": false
    },
    {
      "hash": null,
      "transactionType": "CALL",
      "contractName": "CredentialToken",
      "contractAddress": "0xfdecdf2004f339c0d2e12a924b91eedcfa911062",
      "function": "mint(address,uint256)",
      "arguments": [
        "0x6B9ad963c764a06A7ef8ff96D38D0cB86575eC00",
        "1000000000000000000000"
      ],
      "transaction": {
        "from": "0x6b9ad963c764a06a7ef8ff96d38d0cb86575ec00",
        "to": "0xfdecdf2004f339c0d2e12a924b91eedcfa911062",
        "gas": "0x1adea",
        "value": "0x0",
        "input": "0x40c10f190000000000000000000000006b9ad963c764a06a7ef8ff96d38d0cb86575ec0000000000000000000000000000000000000000000000003635c9adc5dea00000",
        "nonce": "0x1c",
        "chainId": "0x141f"
      },
      "additionalContracts": [],
      "isFixedGasLimit": false
    },
    {
      "hash": null,
      "transactionType": "CALL",
      "contractName": null,
      "contractAddress": "0x60ddecc1f8fa85b531d4891ac1901ab263066a67",
      "function": "setTokenMinter(address,address)",
      "arguments": [
        "0xFdEcdF2004f339C0d2e12A924B91EEdcfA911062",
        "0x94B03d30a4bdde64af2A713060dF1bE4dEb8BeC1"
      ],
      "transaction": {
        "from": "0x6b9ad963c764a06a7ef8ff96d38d0cb86575ec00",
        "to": "0x60ddecc1f8fa85b531d4891ac1901ab263066a67",
        "gas": "0xc885",
        "value": "0x0",
        "input": "0xd9ff9958000000000000000000000000fdecdf2004f339c0d2e12a924b91eedcfa91106200000000000000000000000094b03d30a4bdde64af2a713060df1be4deb8bec1",
        "nonce": "0x1d",
        "chainId": "0x141f"
      },
      "additionalContracts": [],
      "isFixedGasLimit": false
    },
    {
      "hash": null,
      "transactionType": "CALL",
      "contractName": "CredentialToken",
      "contractAddress": "0xfdecdf2004f339c0d2e12a924b91eedcfa911062",
      "function": "approve(address,uint256)",
      "arguments": [
        "0x15ad9d57A5A6Fea6b7efdA228ef117a4A7ed9ef9",
        "1000000000000000000000"
      ],
      "transaction": {
        "from": "0x6b9ad963c764a06a7ef8ff96d38d0cb86575ec00",
        "to": "0xfdecdf2004f339c0d2e12a924b91eedcfa911062",
        "gas": "0x10916",
        "value": "0x0",
        "input": "0x095ea7b300000000000000000000000015ad9d57a5a6fea6b7efda228ef117a4a7ed9ef900000000000000000000000000000000000000000000003635c9adc5dea00000",
        "nonce": "0x1e",
        "chainId": "0x141f"
      },
      "additionalContracts": [],
      "isFixedGasLimit": false
    },
    {
      "hash": null,
      "transactionType": "CALL",
      "contractName": null,
      "contractAddress": "0x62a3e29afc75a91f40599f4f7314ff46eba9bf93",
      "function": "approve(address,uint256)",
      "arguments": [
        "0x15ad9d57A5A6Fea6b7efdA228ef117a4A7ed9ef9",
        "1000000000"
      ],
      "transaction": {
        "from": "0x6b9ad963c764a06a7ef8ff96d38d0cb86575ec00",
        "to": "0x62a3e29afc75a91f40599f4f7314ff46eba9bf93",
        "gas": "0x108d0",
        "value": "0x0",
        "input": "0x095ea7b300000000000000000000000015ad9d57a5a6fea6b7efda228ef117a4a7ed9ef9000000000000000000000000000000000000000000000000000000003b9aca00",
        "nonce": "0x1f",
        "chainId": "0x141f"
      },
      "additionalContracts": [],
      "isFixedGasLimit": false
    },
    {
      "hash": null,
      "transactionType": "CALL",
      "contractName": null,
      "contractAddress": "0x15ad9d57a5a6fea6b7efda228ef117a4a7ed9ef9",
      "function": "createPool(bytes32,address,uint256,uint256)",
      "arguments": [
        "0x36f54272069d54283c9b19b2bda5fcf3ac67472872a89d6fbd8ac62b04e52b6d",
        "0xFdEcdF2004f339C0d2e12A924B91EEdcfA911062",
        "1000000000000000000000",
        "1000000000"
      ],
      "transaction": {
        "from": "0x6b9ad963c764a06a7ef8ff96d38d0cb86575ec00",
        "to": "0x15ad9d57a5a6fea6b7efda228ef117a4a7ed9ef9",
        "gas": "0x7ab23",
        "value": "0x0",
        "input": "0x5ab98a5636f54272069d54283c9b19b2bda5fcf3ac67472872a89d6fbd8ac62b04e52b6d000000000000000000000000fdecdf2004f339c0d2e12a924b91eedcfa91106200000000000000000000000000000000000000000000003635c9adc5dea00000000000000000000000000000000000000000000000000000000000003b9aca00",
        "nonce": "0x20",
        "chainId": "0x141f"
      },
      "additionalContracts": [],
      "isFixedGasLimit": false
    }
  ],
  "receipts": [],
  "libraries": [],
  "pending": [
    "0x3005e6cc31a891e6aaa8e0ae17c936f815e74697f0e1d78da5eba75935a7fb15",
    "0x948c39a513df82b8a651ea7ada5b0f144c17b02aef7d5cfa4dea9d383f8d67d7"
  ],
  "returns": {},
  "timestamp": 1759114123,
  "chain": 5151,
  "commit": null
}